{
  "_format": "hh-sol-artifact-1",
  "contractName": "ETHMyCryptoStash",
  "sourceName": "contracts/ETHMyCryptoStash.sol",
  "abi": [
    {
      "inputs": [
        {
          "internalType": "address",
          "name": "_hasher",
          "type": "address"
        },
        {
          "internalType": "uint256",
          "name": "_minDeposit",
          "type": "uint256"
        },
        {
          "internalType": "uint32",
          "name": "_height",
          "type": "uint32"
        },
        {
          "internalType": "address",
          "name": "_verifier",
          "type": "address"
        }
      ],
      "stateMutability": "nonpayable",
      "type": "constructor"
    },
    {
      "anonymous": false,
      "inputs": [
        {
          "indexed": true,
          "internalType": "uint256",
          "name": "commitment",
          "type": "uint256"
        },
        {
          "indexed": false,
          "internalType": "uint32",
          "name": "leafIndex",
          "type": "uint32"
        },
        {
          "indexed": false,
          "internalType": "uint256",
          "name": "timestamp",
          "type": "uint256"
        }
      ],
      "name": "Deposit",
      "type": "event"
    },
    {
      "inputs": [],
      "name": "FIELD_SIZE",
      "outputs": [
        {
          "internalType": "uint256",
          "name": "",
          "type": "uint256"
        }
      ],
      "stateMutability": "view",
      "type": "function"
    },
    {
      "inputs": [],
      "name": "ROOT_HISTORY_SIZE",
      "outputs": [
        {
          "internalType": "uint32",
          "name": "",
          "type": "uint32"
        }
      ],
      "stateMutability": "view",
      "type": "function"
    },
    {
      "inputs": [],
      "name": "ZERO_VALUE",
      "outputs": [
        {
          "internalType": "uint256",
          "name": "",
          "type": "uint256"
        }
      ],
      "stateMutability": "view",
      "type": "function"
    },
    {
      "inputs": [],
      "name": "combineProofs",
      "outputs": [],
      "stateMutability": "nonpayable",
      "type": "function"
    },
    {
      "inputs": [
        {
          "internalType": "uint256",
          "name": "",
          "type": "uint256"
        }
      ],
      "name": "commitments",
      "outputs": [
        {
          "internalType": "bool",
          "name": "",
          "type": "bool"
        }
      ],
      "stateMutability": "view",
      "type": "function"
    },
    {
      "inputs": [],
      "name": "currentRootIndex",
      "outputs": [
        {
          "internalType": "uint32",
          "name": "",
          "type": "uint32"
        }
      ],
      "stateMutability": "view",
      "type": "function"
    },
    {
      "inputs": [
        {
          "internalType": "uint256",
          "name": "_commitment",
          "type": "uint256"
        },
        {
          "internalType": "uint256",
          "name": "_amount",
          "type": "uint256"
        }
      ],
      "name": "deposit",
      "outputs": [],
      "stateMutability": "payable",
      "type": "function"
    },
    {
      "inputs": [
        {
          "internalType": "uint256",
          "name": "",
          "type": "uint256"
        }
      ],
      "name": "filledSubtrees",
      "outputs": [
        {
          "internalType": "uint256",
          "name": "",
          "type": "uint256"
        }
      ],
      "stateMutability": "view",
      "type": "function"
    },
    {
      "inputs": [],
      "name": "getLastRoot",
      "outputs": [
        {
          "internalType": "uint256",
          "name": "",
          "type": "uint256"
        }
      ],
      "stateMutability": "view",
      "type": "function"
    },
    {
      "inputs": [
        {
          "internalType": "uint256",
          "name": "_left",
          "type": "uint256"
        },
        {
          "internalType": "uint256",
          "name": "_right",
          "type": "uint256"
        }
      ],
      "name": "hashLeftRight",
      "outputs": [
        {
          "internalType": "uint256",
          "name": "",
          "type": "uint256"
        }
      ],
      "stateMutability": "view",
      "type": "function"
    },
    {
      "inputs": [],
      "name": "hasher",
      "outputs": [
        {
          "internalType": "contract Hasher",
          "name": "",
          "type": "address"
        }
      ],
      "stateMutability": "view",
      "type": "function"
    },
    {
      "inputs": [
        {
          "internalType": "uint256",
          "name": "_root",
          "type": "uint256"
        }
      ],
      "name": "isKnownRoot",
      "outputs": [
        {
          "internalType": "bool",
          "name": "",
          "type": "bool"
        }
      ],
      "stateMutability": "view",
      "type": "function"
    },
    {
      "inputs": [],
      "name": "levels",
      "outputs": [
        {
          "internalType": "uint32",
          "name": "",
          "type": "uint32"
        }
      ],
      "stateMutability": "view",
      "type": "function"
    },
    {
      "inputs": [],
      "name": "minimumDeposit",
      "outputs": [
        {
          "internalType": "uint256",
          "name": "",
          "type": "uint256"
        }
      ],
      "stateMutability": "view",
      "type": "function"
    },
    {
      "inputs": [],
      "name": "nextIndex",
      "outputs": [
        {
          "internalType": "uint32",
          "name": "",
          "type": "uint32"
        }
      ],
      "stateMutability": "view",
      "type": "function"
    },
    {
      "inputs": [
        {
          "internalType": "uint256",
          "name": "",
          "type": "uint256"
        }
      ],
      "name": "nullifierHashes",
      "outputs": [
        {
          "internalType": "bool",
          "name": "",
          "type": "bool"
        }
      ],
      "stateMutability": "view",
      "type": "function"
    },
    {
      "inputs": [
        {
          "internalType": "bytes",
          "name": "_proof",
          "type": "bytes"
        },
        {
          "internalType": "uint256",
          "name": "_root",
          "type": "uint256"
        },
        {
          "internalType": "uint256",
          "name": "_nullifierHash",
          "type": "uint256"
        },
        {
          "internalType": "address payable",
          "name": "_recipient",
          "type": "address"
        },
        {
          "internalType": "address payable",
          "name": "_relayer",
          "type": "address"
        },
        {
          "internalType": "uint256",
          "name": "_fee",
          "type": "uint256"
        },
        {
          "internalType": "uint256",
          "name": "_amount",
          "type": "uint256"
        },
        {
          "internalType": "uint256",
          "name": "_newCommitment",
          "type": "uint256"
        }
      ],
      "name": "partialWithdraw",
      "outputs": [],
      "stateMutability": "payable",
      "type": "function"
    },
    {
      "inputs": [
        {
          "internalType": "uint32",
          "name": "",
          "type": "uint32"
        }
      ],
      "name": "roots",
      "outputs": [
        {
          "internalType": "uint256",
          "name": "",
          "type": "uint256"
        }
      ],
      "stateMutability": "view",
      "type": "function"
    },
    {
      "inputs": [],
      "name": "verifier",
      "outputs": [
        {
          "internalType": "contract IVerifier",
          "name": "",
          "type": "address"
        }
      ],
      "stateMutability": "view",
      "type": "function"
    },
    {
      "inputs": [
        {
          "internalType": "bytes",
          "name": "_proof",
          "type": "bytes"
        },
        {
          "internalType": "uint256",
          "name": "_root",
          "type": "uint256"
        },
        {
          "internalType": "uint256",
          "name": "_nullifierHash",
          "type": "uint256"
        },
        {
          "internalType": "address payable",
          "name": "_recipient",
          "type": "address"
        },
        {
          "internalType": "address payable",
          "name": "_relayer",
          "type": "address"
        },
        {
          "internalType": "uint256",
          "name": "_fee",
          "type": "uint256"
        },
        {
          "internalType": "uint256",
          "name": "_amount",
          "type": "uint256"
        }
      ],
      "name": "withdraw",
      "outputs": [],
      "stateMutability": "payable",
      "type": "function"
    },
    {
      "inputs": [
        {
          "internalType": "uint256",
          "name": "",
          "type": "uint256"
        }
      ],
      "name": "zeros",
      "outputs": [
        {
          "internalType": "uint256",
          "name": "",
          "type": "uint256"
        }
      ],
      "stateMutability": "view",
      "type": "function"
    }
  ],
  "bytecode": "0x60e06040526000600360006101000a81548163ffffffff021916908363ffffffff1602179055506000600360046101000a81548163ffffffff021916908363ffffffff1602179055503480156200005557600080fd5b506040516200363a3803806200363a83398181016040528101906200007b91906200052f565b83838383818460008263ffffffff1611620000cd576040517f08c379a0000000000000000000000000000000000000000000000000000000008152600401620000c49062000779565b60405180910390fd5b60208263ffffffff161062000119576040517f08c379a00000000000000000000000000000000000000000000000000000000081526004016200011090620007bd565b60405180910390fd5b806000806101000a81548173ffffffffffffffffffffffffffffffffffffffff021916908373ffffffffffffffffffffffffffffffffffffffff1602179055508163ffffffff1660808163ffffffff1660e01b8152505060007f2fe54c60d3acabf3343a35b6eba15db4821b340f76e741e2249685ed4899af6c9050600281908060018154018082558091505060019003906000526020600020016000909190919091505560018190806001815401808255809150506001900390600052602060002001600090919091909150556000600190505b8363ffffffff168163ffffffff1610156200027f576200021582836200034d60201b60201c565b915060028290806001815401808255809150506001900390600052602060002001600090919091909150556001829080600181540180825580915050600190039060005260206000200160009091909190915055808062000276906200086b565b915050620001ee565b506200029281826200034d60201b60201c565b600460008063ffffffff1681526020019081526020016000208190555050505060016005819055506000831162000300576040517f08c379a0000000000000000000000000000000000000000000000000000000008152600401620002f7906200079b565b60405180910390fd5b8073ffffffffffffffffffffffffffffffffffffffff1660c08173ffffffffffffffffffffffffffffffffffffffff1660601b815250508260a08181525050505050505050505062000a7f565b60007f30644e72e131a029b85045b68181585d2833e84879b9709143e1f593f00000018310620003b4576040517f08c379a0000000000000000000000000000000000000000000000000000000008152600401620003ab9062000735565b60405180910390fd5b7f30644e72e131a029b85045b68181585d2833e84879b9709143e1f593f0000001821062000419576040517f08c379a0000000000000000000000000000000000000000000000000000000008152600401620004109062000757565b60405180910390fd5b6000604051806040016040528085815260200184815250905060008054906101000a900473ffffffffffffffffffffffffffffffffffffffff1673ffffffffffffffffffffffffffffffffffffffff166329a5f2f6826040518263ffffffff1660e01b81526004016200048d919062000718565b60206040518083038186803b158015620004a657600080fd5b505afa158015620004bb573d6000803e3d6000fd5b505050506040513d601f19601f82011682018060405250810190620004e191906200059b565b91505092915050565b600081519050620004fb8162000a31565b92915050565b600081519050620005128162000a4b565b92915050565b600081519050620005298162000a65565b92915050565b600080600080608085870312156200054657600080fd5b60006200055687828801620004ea565b9450506020620005698782880162000501565b93505060406200057c8782880162000518565b92505060606200058f87828801620004ea565b91505092959194509250565b600060208284031215620005ae57600080fd5b6000620005be8482850162000501565b91505092915050565b6000620005d5838362000707565b60208301905092915050565b620005ec81620007e9565b620005f8818462000801565b92506200060582620007df565b8060005b838110156200063c578151620006208782620005c7565b96506200062d83620007f4565b92505060018101905062000609565b505050505050565b6000620006536020836200080c565b91506200066082620008cc565b602082019050919050565b60006200067a6021836200080c565b91506200068782620008f5565b604082019050919050565b6000620006a16027836200080c565b9150620006ae8262000944565b604082019050919050565b6000620006c86029836200080c565b9150620006d58262000993565b604082019050919050565b6000620006ef6022836200080c565b9150620006fc82620009e2565b604082019050919050565b620007128162000851565b82525050565b60006040820190506200072f6000830184620005e1565b92915050565b60006020820190508181036000830152620007508162000644565b9050919050565b6000602082019050818103600083015262000772816200066b565b9050919050565b60006020820190508181036000830152620007948162000692565b9050919050565b60006020820190508181036000830152620007b681620006b9565b9050919050565b60006020820190508181036000830152620007d881620006e0565b9050919050565b6000819050919050565b600060029050919050565b6000602082019050919050565b600081905092915050565b600082825260208201905092915050565b60006200082a8262000831565b9050919050565b600073ffffffffffffffffffffffffffffffffffffffff82169050919050565b6000819050919050565b600063ffffffff82169050919050565b600062000878826200085b565b915063ffffffff8214156200089257620008916200089d565b5b600182019050919050565b7f4e487b7100000000000000000000000000000000000000000000000000000000600052601160045260246000fd5b7f5f6c6566742073686f756c6420626520696e7369646520746865206669656c64600082015250565b7f5f72696768742073686f756c6420626520696e7369646520746865206669656c60008201527f6400000000000000000000000000000000000000000000000000000000000000602082015250565b7f5f747265654c6576656c732073686f756c64206265206772656174657220746860008201527f616e207a65726f00000000000000000000000000000000000000000000000000602082015250565b7f6d696e696d756d206465706f7369742073686f756c642062652067726561746560008201527f72207468616e20302e0000000000000000000000000000000000000000000000602082015250565b7f5f747265654c6576656c732073686f756c64206265206c657373207468616e2060008201527f3332000000000000000000000000000000000000000000000000000000000000602082015250565b62000a3c816200081d565b811462000a4857600080fd5b50565b62000a568162000851565b811462000a6257600080fd5b50565b62000a70816200085b565b811462000a7c57600080fd5b50565b60805160e01c60a05160c05160601c612b6962000ad16000396000818161052f01528181610af4015261105e0152600061074c0152600081816105970152818161162c01526116f20152612b696000f3fe60806040526004361061012a5760003560e01c806390eeb02b116100ab578063e2bbb1581161006f578063e2bbb158146103dc578063e8295588146103f8578063ec73295914610435578063ed33639f14610460578063f178e47c1461048b578063fc7e9c6f146104c85761012a565b806390eeb02b14610302578063a1d420651461032d578063a6232a9314610349578063ba70f75714610386578063cd87a3b4146103b15761012a565b806349ce8997116100f257806349ce8997146102165780634ecf518b146102535780635bb939951461027e578063636bfbab146102bb578063708124ef146102e65761012a565b8063081dc6811461012f5780631709185b1461016c5780631f79a1e9146101835780632b7ac3f3146101c0578063414a37ba146101eb575b600080fd5b34801561013b57600080fd5b5061015660048036038101906101519190611c4f565b6104f3565b604051610163919061221a565b60405180910390f35b34801561017857600080fd5b5061018161050b565b005b34801561018f57600080fd5b506101aa60048036038101906101a59190611bc1565b61050d565b6040516101b79190611ff2565b60405180910390f35b3480156101cc57600080fd5b506101d561052d565b6040516101e2919061205f565b60405180910390f35b3480156101f757600080fd5b50610200610551565b60405161020d919061221a565b60405180910390f35b34801561022257600080fd5b5061023d60048036038101906102389190611bc1565b610575565b60405161024a9190611ff2565b60405180910390f35b34801561025f57600080fd5b50610268610595565b6040516102759190612235565b60405180910390f35b34801561028a57600080fd5b506102a560048036038101906102a09190611c13565b6105b9565b6040516102b2919061221a565b60405180910390f35b3480156102c757600080fd5b506102d061074a565b6040516102dd919061221a565b60405180910390f35b61030060048036038101906102fb9190611af7565b61076e565b005b34801561030e57600080fd5b50610317610cc2565b6040516103249190612235565b60405180910390f35b61034760048036038101906103429190611a41565b610cd8565b005b34801561035557600080fd5b50610370600480360381019061036b9190611bc1565b611190565b60405161037d9190611ff2565b60405180910390f35b34801561039257600080fd5b5061039b61123f565b6040516103a8919061221a565b60405180910390f35b3480156103bd57600080fd5b506103c6611278565b6040516103d39190612235565b60405180910390f35b6103f660048036038101906103f19190611c13565b61127d565b005b34801561040457600080fd5b5061041f600480360381019061041a9190611bc1565b6113b5565b60405161042c919061221a565b60405180910390f35b34801561044157600080fd5b5061044a6113d9565b604051610457919061221a565b60405180910390f35b34801561046c57600080fd5b506104756113fd565b6040516104829190612044565b60405180910390f35b34801561049757600080fd5b506104b260048036038101906104ad9190611bc1565b611421565b6040516104bf919061221a565b60405180910390f35b3480156104d457600080fd5b506104dd611445565b6040516104ea9190612235565b60405180910390f35b60046020528060005260406000206000915090505481565b565b60066020528060005260406000206000915054906101000a900460ff1681565b7f000000000000000000000000000000000000000000000000000000000000000081565b7f30644e72e131a029b85045b68181585d2833e84879b9709143e1f593f000000181565b60076020528060005260406000206000915054906101000a900460ff1681565b7f000000000000000000000000000000000000000000000000000000000000000081565b60007f30644e72e131a029b85045b68181585d2833e84879b9709143e1f593f0000001831061061d576040517f08c379a0000000000000000000000000000000000000000000000000000000008152600401610614906120fa565b60405180910390fd5b7f30644e72e131a029b85045b68181585d2833e84879b9709143e1f593f0000001821061067f576040517f08c379a00000000000000000000000000000000000000000000000000000000081526004016106769061211a565b60405180910390fd5b6000604051806040016040528085815260200184815250905060008054906101000a900473ffffffffffffffffffffffffffffffffffffffff1673ffffffffffffffffffffffffffffffffffffffff166329a5f2f6826040518263ffffffff1660e01b81526004016106f19190611fd7565b60206040518083038186803b15801561070957600080fd5b505afa15801561071d573d6000803e3d6000fd5b505050506040513d601f19601f820116820180604052508101906107419190611bea565b91505092915050565b7f000000000000000000000000000000000000000000000000000000000000000081565b600260055414156107b4576040517f08c379a00000000000000000000000000000000000000000000000000000000081526004016107ab906121da565b60405180910390fd5b6002600581905550818311156107ff576040517f08c379a00000000000000000000000000000000000000000000000000000000081526004016107f6906120da565b60405180910390fd5b6006600087815260200190815260200160002060009054906101000a900460ff1615610860576040517f08c379a00000000000000000000000000000000000000000000000000000000081526004016108579061207a565b60405180910390fd5b61086987611190565b6108a8576040517f08c379a000000000000000000000000000000000000000000000000000000000815260040161089f906120ba565b60405180910390fd5b6000600667ffffffffffffffff8111156108eb577f4e487b7100000000000000000000000000000000000000000000000000000000600052604160045260246000fd5b6040519080825280602002602001820160405280156109195781602001602082028036833780820191505090505b5090508781600081518110610957577f4e487b7100000000000000000000000000000000000000000000000000000000600052603260045260246000fd5b602002602001018181525050868160018151811061099e577f4e487b7100000000000000000000000000000000000000000000000000000000600052603260045260246000fd5b6020026020010181815250508573ffffffffffffffffffffffffffffffffffffffff16816002815181106109fb577f4e487b7100000000000000000000000000000000000000000000000000000000600052603260045260246000fd5b6020026020010181815250508473ffffffffffffffffffffffffffffffffffffffff1681600381518110610a58577f4e487b7100000000000000000000000000000000000000000000000000000000600052603260045260246000fd5b6020026020010181815250508381600481518110610a9f577f4e487b7100000000000000000000000000000000000000000000000000000000600052603260045260246000fd5b6020026020010181815250508281600581518110610ae6577f4e487b7100000000000000000000000000000000000000000000000000000000600052603260045260246000fd5b6020026020010181815250507f000000000000000000000000000000000000000000000000000000000000000073ffffffffffffffffffffffffffffffffffffffff16631e8e1e138a836040518363ffffffff1660e01b8152600401610b4d92919061200d565b60206040518083038186803b158015610b6557600080fd5b505afa158015610b79573d6000803e3d6000fd5b505050506040513d601f19601f82011682018060405250810190610b9d9190611a18565b610bdc576040517f08c379a0000000000000000000000000000000000000000000000000000000008152600401610bd39061219a565b60405180910390fd5b60016006600089815260200190815260200160002060006101000a81548160ff021916908315150217905550610c148686868661145b565b6007600083815260200190815260200160002060009054906101000a900460ff1615610c75576040517f08c379a0000000000000000000000000000000000000000000000000000000008152600401610c6c9061213a565b60405180910390fd5b6000610c8083611612565b905060016007600085815260200190815260200160002060006101000a81548160ff021916908315150217905550505060016005819055505050505050505050565b600360009054906101000a900463ffffffff1681565b60026005541415610d1e576040517f08c379a0000000000000000000000000000000000000000000000000000000008152600401610d15906121da565b60405180910390fd5b600260058190555080821115610d69576040517f08c379a0000000000000000000000000000000000000000000000000000000008152600401610d60906120da565b60405180910390fd5b6006600086815260200190815260200160002060009054906101000a900460ff1615610dca576040517f08c379a0000000000000000000000000000000000000000000000000000000008152600401610dc19061207a565b60405180910390fd5b610dd386611190565b610e12576040517f08c379a0000000000000000000000000000000000000000000000000000000008152600401610e09906120ba565b60405180910390fd5b6000600667ffffffffffffffff811115610e55577f4e487b7100000000000000000000000000000000000000000000000000000000600052604160045260246000fd5b604051908082528060200260200182016040528015610e835781602001602082028036833780820191505090505b5090508681600081518110610ec1577f4e487b7100000000000000000000000000000000000000000000000000000000600052603260045260246000fd5b6020026020010181815250508581600181518110610f08577f4e487b7100000000000000000000000000000000000000000000000000000000600052603260045260246000fd5b6020026020010181815250508473ffffffffffffffffffffffffffffffffffffffff1681600281518110610f65577f4e487b7100000000000000000000000000000000000000000000000000000000600052603260045260246000fd5b6020026020010181815250508373ffffffffffffffffffffffffffffffffffffffff1681600381518110610fc2577f4e487b7100000000000000000000000000000000000000000000000000000000600052603260045260246000fd5b6020026020010181815250508281600481518110611009577f4e487b7100000000000000000000000000000000000000000000000000000000600052603260045260246000fd5b6020026020010181815250508181600581518110611050577f4e487b7100000000000000000000000000000000000000000000000000000000600052603260045260246000fd5b6020026020010181815250507f000000000000000000000000000000000000000000000000000000000000000073ffffffffffffffffffffffffffffffffffffffff16631e8e1e1389836040518363ffffffff1660e01b81526004016110b792919061200d565b60206040518083038186803b1580156110cf57600080fd5b505afa1580156110e3573d6000803e3d6000fd5b505050506040513d601f19601f820116820180604052508101906111079190611a18565b611146576040517f08c379a000000000000000000000000000000000000000000000000000000000815260040161113d9061219a565b60405180910390fd5b60016006600088815260200190815260200160002060006101000a81548160ff02191690831515021790555061117e8585858561145b565b50600160058190555050505050505050565b6000808214156111a3576000905061123a565b6000600360009054906101000a900463ffffffff1690505b600460008263ffffffff1663ffffffff168152602001908152602001600020548314156111ec57600191505061123a565b60008163ffffffff16141561120057606490505b808061120b90612677565b915050600360009054906101000a900463ffffffff1663ffffffff168163ffffffff1614156111bb5760009150505b919050565b600060046000600360009054906101000a900463ffffffff1663ffffffff1663ffffffff16815260200190815260200160002054905090565b606481565b600260055414156112c3576040517f08c379a00000000000000000000000000000000000000000000000000000000081526004016112ba906121da565b60405180910390fd5b60026005819055506007600083815260200190815260200160002060009054906101000a900460ff161561132c576040517f08c379a00000000000000000000000000000000000000000000000000000000081526004016113239061213a565b60405180910390fd5b600061133783611612565b905060016007600085815260200190815260200160002060006101000a81548160ff02191690831515021790555061136e82611902565b827f2813ca2762c14ad53880ef467c7448a9015904c20e064e6216ffb3f63390ec5d82426040516113a0929190612250565b60405180910390a25060016005819055505050565b600281815481106113c557600080fd5b906000526020600020016000915090505481565b7f2fe54c60d3acabf3343a35b6eba15db4821b340f76e741e2249685ed4899af6c81565b60008054906101000a900473ffffffffffffffffffffffffffffffffffffffff1681565b6001818154811061143157600080fd5b906000526020600020016000915090505481565b600360049054906101000a900463ffffffff1681565b6000341461149e576040517f08c379a0000000000000000000000000000000000000000000000000000000008152600401611495906121fa565b60405180910390fd5b60008473ffffffffffffffffffffffffffffffffffffffff1683836114c3919061252d565b6040516114cf90611fc2565b60006040518083038185875af1925050503d806000811461150c576040519150601f19603f3d011682016040523d82523d6000602084013e611511565b606091505b5050905080611555576040517f08c379a000000000000000000000000000000000000000000000000000000000815260040161154c9061215a565b60405180910390fd5b600083111561160b578373ffffffffffffffffffffffffffffffffffffffff168360405161158290611fc2565b60006040518083038185875af1925050503d80600081146115bf576040519150601f19603f3d011682016040523d82523d6000602084013e6115c4565b606091505b5050809150508061160a576040517f08c379a00000000000000000000000000000000000000000000000000000000081526004016116019061217a565b60405180910390fd5b5b5050505050565b600080600360049054906101000a900463ffffffff1690507f00000000000000000000000000000000000000000000000000000000000000006002611657919061242b565b63ffffffff168163ffffffff1614156116a5576040517f08c379a000000000000000000000000000000000000000000000000000000000815260040161169c9061209a565b60405180910390fd5b6001600360048282829054906101000a900463ffffffff166116c7919061236d565b92506101000a81548163ffffffff021916908363ffffffff160217905550600083905060008060005b7f000000000000000000000000000000000000000000000000000000000000000063ffffffff168163ffffffff16101561186257600060028661173391906126ff565b63ffffffff1614156117e35783925060028163ffffffff1681548110611782577f4e487b7100000000000000000000000000000000000000000000000000000000600052603260045260246000fd5b906000526020600020015491508360018263ffffffff16815481106117d0577f4e487b7100000000000000000000000000000000000000000000000000000000600052603260045260246000fd5b9060005260206000200181905550611834565b60018163ffffffff1681548110611823577f4e487b7100000000000000000000000000000000000000000000000000000000600052603260045260246000fd5b906000526020600020015492508391505b61183e83836105b9565b935060028561184d91906123a7565b9450808061185a906126d2565b9150506116f0565b50600060646001600360009054906101000a900463ffffffff16611886919061236d565b61189091906126ff565b905080600360006101000a81548163ffffffff021916908363ffffffff16021790555083600460008363ffffffff1663ffffffff168152602001908152602001600020819055506001600360049054906101000a900463ffffffff166118f69190612561565b95505050505050919050565b803414611944576040517f08c379a000000000000000000000000000000000000000000000000000000000815260040161193b906121ba565b60405180910390fd5b50565b600061195a6119558461229e565b612279565b90508281526020810184848401111561197257600080fd5b61197d848285612635565b509392505050565b60008135905061199481612ad7565b92915050565b6000815190506119a981612aee565b92915050565b600082601f8301126119c057600080fd5b81356119d0848260208601611947565b91505092915050565b6000813590506119e881612b05565b92915050565b6000815190506119fd81612b05565b92915050565b600081359050611a1281612b1c565b92915050565b600060208284031215611a2a57600080fd5b6000611a388482850161199a565b91505092915050565b600080600080600080600060e0888a031215611a5c57600080fd5b600088013567ffffffffffffffff811115611a7657600080fd5b611a828a828b016119af565b9750506020611a938a828b016119d9565b9650506040611aa48a828b016119d9565b9550506060611ab58a828b01611985565b9450506080611ac68a828b01611985565b93505060a0611ad78a828b016119d9565b92505060c0611ae88a828b016119d9565b91505092959891949750929550565b600080600080600080600080610100898b031215611b1457600080fd5b600089013567ffffffffffffffff811115611b2e57600080fd5b611b3a8b828c016119af565b9850506020611b4b8b828c016119d9565b9750506040611b5c8b828c016119d9565b9650506060611b6d8b828c01611985565b9550506080611b7e8b828c01611985565b94505060a0611b8f8b828c016119d9565b93505060c0611ba08b828c016119d9565b92505060e0611bb18b828c016119d9565b9150509295985092959890939650565b600060208284031215611bd357600080fd5b6000611be1848285016119d9565b91505092915050565b600060208284031215611bfc57600080fd5b6000611c0a848285016119ee565b91505092915050565b60008060408385031215611c2657600080fd5b6000611c34858286016119d9565b9250506020611c45858286016119d9565b9150509250929050565b600060208284031215611c6157600080fd5b6000611c6f84828501611a03565b91505092915050565b6000611c848383611f95565b60208301905092915050565b611c99816122e9565b611ca38184612324565b9250611cae826122cf565b8060005b83811015611cdf578151611cc68782611c78565b9650611cd18361230a565b925050600181019050611cb2565b505050505050565b6000611cf2826122f4565b611cfc818561232f565b9350611d07836122d9565b8060005b83811015611d38578151611d1f8882611c78565b9750611d2a83612317565b925050600181019050611d0b565b5085935050505092915050565b611d4e816125a7565b82525050565b6000611d5f826122ff565b611d698185612340565b9350611d79818560208601612644565b611d82816127bd565b840191505092915050565b611d96816125ed565b82525050565b611da581612611565b82525050565b6000611db860208361235c565b9150611dc3826127db565b602082019050919050565b6000611ddb602f8361235c565b9150611de682612804565b604082019050919050565b6000611dfe601c8361235c565b9150611e0982612853565b602082019050919050565b6000611e21601a8361235c565b9150611e2c8261287c565b602082019050919050565b6000611e4460208361235c565b9150611e4f826128a5565b602082019050919050565b6000611e6760218361235c565b9150611e72826128ce565b604082019050919050565b6000611e8a602a8361235c565b9150611e958261291d565b604082019050919050565b6000611ead60258361235c565b9150611eb88261296c565b604082019050919050565b6000611ed060288361235c565b9150611edb826129bb565b604082019050919050565b6000611ef3600083612351565b9150611efe82612a0a565b600082019050919050565b6000611f16600d8361235c565b9150611f2182612a0d565b602082019050919050565b6000611f39601e8361235c565b9150611f4482612a36565b602082019050919050565b6000611f5c601f8361235c565b9150611f6782612a5f565b602082019050919050565b6000611f7f60358361235c565b9150611f8a82612a88565b604082019050919050565b611f9e816125d3565b82525050565b611fad816125d3565b82525050565b611fbc816125dd565b82525050565b6000611fcd82611ee6565b9150819050919050565b6000604082019050611fec6000830184611c90565b92915050565b60006020820190506120076000830184611d45565b92915050565b600060408201905081810360008301526120278185611d54565b9050818103602083015261203b8184611ce7565b90509392505050565b60006020820190506120596000830184611d8d565b92915050565b60006020820190506120746000830184611d9c565b92915050565b6000602082019050818103600083015261209381611dab565b9050919050565b600060208201905081810360008301526120b381611dce565b9050919050565b600060208201905081810360008301526120d381611df1565b9050919050565b600060208201905081810360008301526120f381611e14565b9050919050565b6000602082019050818103600083015261211381611e37565b9050919050565b6000602082019050818103600083015261213381611e5a565b9050919050565b6000602082019050818103600083015261215381611e7d565b9050919050565b6000602082019050818103600083015261217381611ea0565b9050919050565b6000602082019050818103600083015261219381611ec3565b9050919050565b600060208201905081810360008301526121b381611f09565b9050919050565b600060208201905081810360008301526121d381611f2c565b9050919050565b600060208201905081810360008301526121f381611f4f565b9050919050565b6000602082019050818103600083015261221381611f72565b9050919050565b600060208201905061222f6000830184611fa4565b92915050565b600060208201905061224a6000830184611fb3565b92915050565b60006040820190506122656000830185611fb3565b6122726020830184611fa4565b9392505050565b6000612283612294565b905061228f82826126a1565b919050565b6000604051905090565b600067ffffffffffffffff8211156122b9576122b861278e565b5b6122c2826127bd565b9050602081019050919050565b6000819050919050565b6000819050602082019050919050565b600060029050919050565b600081519050919050565b600081519050919050565b6000602082019050919050565b6000602082019050919050565b600081905092915050565b600082825260208201905092915050565b600082825260208201905092915050565b600081905092915050565b600082825260208201905092915050565b6000612378826125dd565b9150612383836125dd565b92508263ffffffff0382111561239c5761239b612730565b5b828201905092915050565b60006123b2826125dd565b91506123bd836125dd565b9250826123cd576123cc61275f565b5b828204905092915050565b6000808291508390505b6001851115612422578086048111156123fe576123fd612730565b5b600185161561240d5780820291505b808102905061241b856127ce565b94506123e2565b94509492505050565b6000612436826125dd565b9150612441836125dd565b925061245263ffffffff848461245a565b905092915050565b60008261246a5760019050612526565b816124785760009050612526565b816001811461248e5760028114612498576124c7565b6001915050612526565b60ff8411156124aa576124a9612730565b5b8360020a9150848211156124c1576124c0612730565b5b50612526565b5060208310610133831016604e8410600b84101617156124fc5782820a9050838111156124f7576124f6612730565b5b612526565b61250984848460016123d8565b925090508184048111156125205761251f612730565b5b81810290505b9392505050565b6000612538826125d3565b9150612543836125d3565b92508282101561255657612555612730565b5b828203905092915050565b600061256c826125dd565b9150612577836125dd565b92508282101561258a57612589612730565b5b828203905092915050565b60006125a0826125b3565b9050919050565b60008115159050919050565b600073ffffffffffffffffffffffffffffffffffffffff82169050919050565b6000819050919050565b600063ffffffff82169050919050565b60006125f8826125ff565b9050919050565b600061260a826125b3565b9050919050565b600061261c82612623565b9050919050565b600061262e826125b3565b9050919050565b82818337600083830152505050565b60005b83811015612662578082015181840152602081019050612647565b83811115612671576000848401525b50505050565b6000612682826125dd565b9150600082141561269657612695612730565b5b600182039050919050565b6126aa826127bd565b810181811067ffffffffffffffff821117156126c9576126c861278e565b5b80604052505050565b60006126dd826125dd565b915063ffffffff8214156126f4576126f3612730565b5b600182019050919050565b600061270a826125dd565b9150612715836125dd565b9250826127255761272461275f565b5b828206905092915050565b7f4e487b7100000000000000000000000000000000000000000000000000000000600052601160045260246000fd5b7f4e487b7100000000000000000000000000000000000000000000000000000000600052601260045260246000fd5b7f4e487b7100000000000000000000000000000000000000000000000000000000600052604160045260246000fd5b6000601f19601f8301169050919050565b60008160011c9050919050565b7f546865206e6f746520686173206265656e20616c7265616479207370656e742e600082015250565b7f4d65726b6c6520747265652069732066756c6c2e204e6f206d6f7265206c656160008201527f66732063616e2062652061646465640000000000000000000000000000000000602082015250565b7f43616e6e6f742066696e6420796f7572206d65726b6c6520726f6f7400000000600082015250565b7f4665652065786365656473207472616e736665722076616c7565000000000000600082015250565b7f5f6c6566742073686f756c6420626520696e7369646520746865206669656c64600082015250565b7f5f72696768742073686f756c6420626520696e7369646520746865206669656c60008201527f6400000000000000000000000000000000000000000000000000000000000000602082015250565b7f54686520636f6d6d69746d656e742068617320616c7265616479206265656e2060008201527f7375626d69747465642e00000000000000000000000000000000000000000000602082015250565b7f7061796d656e7420746f205f726563697069656e7420646964206e6f7420676f60008201527f2074687275000000000000000000000000000000000000000000000000000000602082015250565b7f7061796d656e7420746f20746865205f72656c6179657220646964206e6f742060008201527f676f20746872752e000000000000000000000000000000000000000000000000602082015250565b50565b7f496e76616c69642070726f6f6600000000000000000000000000000000000000600082015250565b7f506c656173652073656e642074686520636f727265637420616d6f756e740000600082015250565b7f5265656e7472616e637947756172643a207265656e7472616e742063616c6c00600082015250565b7f4d6573736167652076616c756520697320737570706f73656420746f2062652060008201527f7a65726f20666f722045544820696e7374616e63650000000000000000000000602082015250565b612ae081612595565b8114612aeb57600080fd5b50565b612af7816125a7565b8114612b0257600080fd5b50565b612b0e816125d3565b8114612b1957600080fd5b50565b612b25816125dd565b8114612b3057600080fd5b5056fea26469706673582212207801328c02650d103299d224609d6fde63615dd80810dde1873e1048a95d2f7464736f6c63430008040033",
  "linkReferences": {},
  "deployedLinkReferences": {}
}