{
  "_format": "hh-sol-artifact-1",
  "contractName": "ETHMyCryptoStash",
  "sourceName": "contracts/ETHMyCryptoStash.sol",
  "abi": [
    {
      "inputs": [
        {
          "internalType": "address",
          "name": "_hasher",
          "type": "address"
        },
        {
          "internalType": "uint256",
          "name": "_minDeposit",
          "type": "uint256"
        },
        {
          "internalType": "uint256",
          "name": "_maxDeposit",
          "type": "uint256"
        },
        {
          "internalType": "uint32",
          "name": "_height",
          "type": "uint32"
        },
        {
          "internalType": "address",
          "name": "_verifier",
          "type": "address"
        }
      ],
      "stateMutability": "nonpayable",
      "type": "constructor"
    },
    {
      "anonymous": false,
      "inputs": [
        {
          "indexed": true,
          "internalType": "uint256",
          "name": "commitment",
          "type": "uint256"
        },
        {
          "indexed": false,
          "internalType": "uint32",
          "name": "leafIndex",
          "type": "uint32"
        },
        {
          "indexed": false,
          "internalType": "uint256",
          "name": "timestamp",
          "type": "uint256"
        }
      ],
      "name": "Deposit",
      "type": "event"
    },
    {
      "anonymous": false,
      "inputs": [
        {
          "indexed": true,
          "internalType": "address",
          "name": "previousOwner",
          "type": "address"
        },
        {
          "indexed": true,
          "internalType": "address",
          "name": "newOwner",
          "type": "address"
        }
      ],
      "name": "OwnershipTransferred",
      "type": "event"
    },
    {
      "anonymous": false,
      "inputs": [
        {
          "indexed": false,
          "internalType": "address",
          "name": "to",
          "type": "address"
        },
        {
          "indexed": false,
          "internalType": "uint256",
          "name": "nullifierHash",
          "type": "uint256"
        },
        {
          "indexed": true,
          "internalType": "address",
          "name": "relayer",
          "type": "address"
        },
        {
          "indexed": false,
          "internalType": "uint256",
          "name": "fee",
          "type": "uint256"
        },
        {
          "indexed": false,
          "internalType": "uint256",
          "name": "commitment",
          "type": "uint256"
        }
      ],
      "name": "PartialWithdraw",
      "type": "event"
    },
    {
      "anonymous": false,
      "inputs": [
        {
          "indexed": false,
          "internalType": "address",
          "name": "to",
          "type": "address"
        },
        {
          "indexed": false,
          "internalType": "uint256",
          "name": "nullifierHash",
          "type": "uint256"
        },
        {
          "indexed": true,
          "internalType": "address",
          "name": "relayer",
          "type": "address"
        },
        {
          "indexed": false,
          "internalType": "uint256",
          "name": "fee",
          "type": "uint256"
        }
      ],
      "name": "Withdraw",
      "type": "event"
    },
    {
      "inputs": [],
      "name": "FIELD_SIZE",
      "outputs": [
        {
          "internalType": "uint256",
          "name": "",
          "type": "uint256"
        }
      ],
      "stateMutability": "view",
      "type": "function"
    },
    {
      "inputs": [],
      "name": "ROOT_HISTORY_SIZE",
      "outputs": [
        {
          "internalType": "uint32",
          "name": "",
          "type": "uint32"
        }
      ],
      "stateMutability": "view",
      "type": "function"
    },
    {
      "inputs": [],
      "name": "ZERO_VALUE",
      "outputs": [
        {
          "internalType": "uint256",
          "name": "",
          "type": "uint256"
        }
      ],
      "stateMutability": "view",
      "type": "function"
    },
    {
      "inputs": [
        {
          "internalType": "uint256",
          "name": "",
          "type": "uint256"
        }
      ],
      "name": "commitments",
      "outputs": [
        {
          "internalType": "bool",
          "name": "",
          "type": "bool"
        }
      ],
      "stateMutability": "view",
      "type": "function"
    },
    {
      "inputs": [],
      "name": "currentRootIndex",
      "outputs": [
        {
          "internalType": "uint32",
          "name": "",
          "type": "uint32"
        }
      ],
      "stateMutability": "view",
      "type": "function"
    },
    {
      "inputs": [
        {
          "internalType": "uint256",
          "name": "_commitment",
          "type": "uint256"
        },
        {
          "internalType": "uint256",
          "name": "_amount",
          "type": "uint256"
        }
      ],
      "name": "deposit",
      "outputs": [],
      "stateMutability": "payable",
      "type": "function"
    },
    {
      "inputs": [
        {
          "internalType": "uint256",
          "name": "",
          "type": "uint256"
        }
      ],
      "name": "filledSubtrees",
      "outputs": [
        {
          "internalType": "uint256",
          "name": "",
          "type": "uint256"
        }
      ],
      "stateMutability": "view",
      "type": "function"
    },
    {
      "inputs": [],
      "name": "getCommitments",
      "outputs": [
        {
          "internalType": "uint256[]",
          "name": "",
          "type": "uint256[]"
        }
      ],
      "stateMutability": "view",
      "type": "function"
    },
    {
      "inputs": [],
      "name": "getLastRoot",
      "outputs": [
        {
          "internalType": "uint256",
          "name": "",
          "type": "uint256"
        }
      ],
      "stateMutability": "view",
      "type": "function"
    },
    {
      "inputs": [
        {
          "internalType": "uint256",
          "name": "_left",
          "type": "uint256"
        },
        {
          "internalType": "uint256",
          "name": "_right",
          "type": "uint256"
        }
      ],
      "name": "hashLeftRight",
      "outputs": [
        {
          "internalType": "uint256",
          "name": "",
          "type": "uint256"
        }
      ],
      "stateMutability": "view",
      "type": "function"
    },
    {
      "inputs": [],
      "name": "hasher",
      "outputs": [
        {
          "internalType": "contract Hasher",
          "name": "",
          "type": "address"
        }
      ],
      "stateMutability": "view",
      "type": "function"
    },
    {
      "inputs": [
        {
          "internalType": "uint256",
          "name": "_root",
          "type": "uint256"
        }
      ],
      "name": "isKnownRoot",
      "outputs": [
        {
          "internalType": "bool",
          "name": "",
          "type": "bool"
        }
      ],
      "stateMutability": "view",
      "type": "function"
    },
    {
      "inputs": [],
      "name": "levels",
      "outputs": [
        {
          "internalType": "uint32",
          "name": "",
          "type": "uint32"
        }
      ],
      "stateMutability": "view",
      "type": "function"
    },
    {
      "inputs": [],
      "name": "maximumDeposit",
      "outputs": [
        {
          "internalType": "uint256",
          "name": "",
          "type": "uint256"
        }
      ],
      "stateMutability": "view",
      "type": "function"
    },
    {
      "inputs": [],
      "name": "minimumDeposit",
      "outputs": [
        {
          "internalType": "uint256",
          "name": "",
          "type": "uint256"
        }
      ],
      "stateMutability": "view",
      "type": "function"
    },
    {
      "inputs": [],
      "name": "nextIndex",
      "outputs": [
        {
          "internalType": "uint32",
          "name": "",
          "type": "uint32"
        }
      ],
      "stateMutability": "view",
      "type": "function"
    },
    {
      "inputs": [
        {
          "internalType": "uint256",
          "name": "",
          "type": "uint256"
        }
      ],
      "name": "nullifierHashes",
      "outputs": [
        {
          "internalType": "bool",
          "name": "",
          "type": "bool"
        }
      ],
      "stateMutability": "view",
      "type": "function"
    },
    {
      "inputs": [],
      "name": "owner",
      "outputs": [
        {
          "internalType": "address",
          "name": "",
          "type": "address"
        }
      ],
      "stateMutability": "view",
      "type": "function"
    },
    {
      "inputs": [
        {
          "components": [
            {
              "internalType": "uint256[2]",
              "name": "a",
              "type": "uint256[2]"
            },
            {
              "internalType": "uint256[2][2]",
              "name": "b",
              "type": "uint256[2][2]"
            },
            {
              "internalType": "uint256[2]",
              "name": "c",
              "type": "uint256[2]"
            }
          ],
          "internalType": "struct MyCryptoStash.Proof",
          "name": "_proof",
          "type": "tuple"
        },
        {
          "internalType": "uint256",
          "name": "_root",
          "type": "uint256"
        },
        {
          "internalType": "uint256",
          "name": "_nullifierHash",
          "type": "uint256"
        },
        {
          "internalType": "address payable",
          "name": "_recipient",
          "type": "address"
        },
        {
          "internalType": "address payable",
          "name": "_relayer",
          "type": "address"
        },
        {
          "internalType": "uint256",
          "name": "_fee",
          "type": "uint256"
        },
        {
          "internalType": "uint256",
          "name": "_amount",
          "type": "uint256"
        },
        {
          "internalType": "uint256",
          "name": "_newCommitment",
          "type": "uint256"
        }
      ],
      "name": "partialWithdraw",
      "outputs": [],
      "stateMutability": "payable",
      "type": "function"
    },
    {
      "inputs": [],
      "name": "renounceOwnership",
      "outputs": [],
      "stateMutability": "nonpayable",
      "type": "function"
    },
    {
      "inputs": [
        {
          "internalType": "uint32",
          "name": "",
          "type": "uint32"
        }
      ],
      "name": "roots",
      "outputs": [
        {
          "internalType": "uint256",
          "name": "",
          "type": "uint256"
        }
      ],
      "stateMutability": "view",
      "type": "function"
    },
    {
      "inputs": [
        {
          "internalType": "address",
          "name": "newOwner",
          "type": "address"
        }
      ],
      "name": "transferOwnership",
      "outputs": [],
      "stateMutability": "nonpayable",
      "type": "function"
    },
    {
      "inputs": [],
      "name": "verifier",
      "outputs": [
        {
          "internalType": "contract IVerifier",
          "name": "",
          "type": "address"
        }
      ],
      "stateMutability": "view",
      "type": "function"
    },
    {
      "inputs": [
        {
          "components": [
            {
              "internalType": "uint256[2]",
              "name": "a",
              "type": "uint256[2]"
            },
            {
              "internalType": "uint256[2][2]",
              "name": "b",
              "type": "uint256[2][2]"
            },
            {
              "internalType": "uint256[2]",
              "name": "c",
              "type": "uint256[2]"
            }
          ],
          "internalType": "struct MyCryptoStash.Proof",
          "name": "_proof",
          "type": "tuple"
        },
        {
          "internalType": "uint256",
          "name": "_root",
          "type": "uint256"
        },
        {
          "internalType": "uint256",
          "name": "_nullifierHash",
          "type": "uint256"
        },
        {
          "internalType": "address payable",
          "name": "_recipient",
          "type": "address"
        },
        {
          "internalType": "address payable",
          "name": "_relayer",
          "type": "address"
        },
        {
          "internalType": "uint256",
          "name": "_fee",
          "type": "uint256"
        },
        {
          "internalType": "uint256",
          "name": "_amount",
          "type": "uint256"
        }
      ],
      "name": "withdraw",
      "outputs": [],
      "stateMutability": "payable",
      "type": "function"
    },
    {
      "inputs": [
        {
          "internalType": "uint256",
          "name": "",
          "type": "uint256"
        }
      ],
      "name": "zeros",
      "outputs": [
        {
          "internalType": "uint256",
          "name": "",
          "type": "uint256"
        }
      ],
      "stateMutability": "view",
      "type": "function"
    }
  ],
  "bytecode": "0x6101006040526000600360006101000a81548163ffffffff021916908363ffffffff1602179055506000600360046101000a81548163ffffffff021916908363ffffffff1602179055503480156200005657600080fd5b50604051620040083803806200400883398181016040528101906200007c919062000629565b8484848484818560008263ffffffff1611620000cf576040517f08c379a0000000000000000000000000000000000000000000000000000000008152600401620000c69062000889565b60405180910390fd5b60208263ffffffff16106200011b576040517f08c379a00000000000000000000000000000000000000000000000000000000081526004016200011290620008cd565b60405180910390fd5b806000806101000a81548173ffffffffffffffffffffffffffffffffffffffff021916908373ffffffffffffffffffffffffffffffffffffffff1602179055508163ffffffff1660808163ffffffff1660e01b8152505060007f2fe54c60d3acabf3343a35b6eba15db4821b340f76e741e2249685ed4899af6c9050600281908060018154018082558091505060019003906000526020600020016000909190919091505560018190806001815401808255809150506001900390600052602060002001600090919091909150556000600190505b8363ffffffff168163ffffffff16101562000281576200021782836200037960201b60201c565b915060028290806001815401808255809150506001900390600052602060002001600090919091909150556001829080600181540180825580915050600190039060005260206000200160009091909190915055808062000278906200097b565b915050620001f0565b506200029481826200037960201b60201c565b600460008063ffffffff1681526020019081526020016000208190555050505060016005819055506000841162000302576040517f08c379a0000000000000000000000000000000000000000000000000000000008152600401620002f990620008ab565b60405180910390fd5b8073ffffffffffffffffffffffffffffffffffffffff1660e08173ffffffffffffffffffffffffffffffffffffffff1660601b815250508360a081815250508260c0818152505050505050506200036e620003626200051660201b60201c565b6200051e60201b60201c565b505050505062000b8f565b60007f30644e72e131a029b85045b68181585d2833e84879b9709143e1f593f00000018310620003e0576040517f08c379a0000000000000000000000000000000000000000000000000000000008152600401620003d79062000845565b60405180910390fd5b7f30644e72e131a029b85045b68181585d2833e84879b9709143e1f593f0000001821062000445576040517f08c379a00000000000000000000000000000000000000000000000000000000081526004016200043c9062000867565b60405180910390fd5b6000604051806040016040528085815260200184815250905060008054906101000a900473ffffffffffffffffffffffffffffffffffffffff1673ffffffffffffffffffffffffffffffffffffffff166329a5f2f6826040518263ffffffff1660e01b8152600401620004b9919062000828565b60206040518083038186803b158015620004d257600080fd5b505afa158015620004e7573d6000803e3d6000fd5b505050506040513d601f19601f820116820180604052508101906200050d9190620006ab565b91505092915050565b600033905090565b6000600960009054906101000a900473ffffffffffffffffffffffffffffffffffffffff16905081600960006101000a81548173ffffffffffffffffffffffffffffffffffffffff021916908373ffffffffffffffffffffffffffffffffffffffff1602179055508173ffffffffffffffffffffffffffffffffffffffff168173ffffffffffffffffffffffffffffffffffffffff167f8be0079c531659141344cd1fd0a4f28419497f9722a3daafe3b4186f6b6457e060405160405180910390a35050565b600081519050620005f58162000b41565b92915050565b6000815190506200060c8162000b5b565b92915050565b600081519050620006238162000b75565b92915050565b600080600080600060a086880312156200064257600080fd5b60006200065288828901620005e4565b95505060206200066588828901620005fb565b94505060406200067888828901620005fb565b93505060606200068b8882890162000612565b92505060806200069e88828901620005e4565b9150509295509295909350565b600060208284031215620006be57600080fd5b6000620006ce84828501620005fb565b91505092915050565b6000620006e5838362000817565b60208301905092915050565b620006fc81620008f9565b62000708818462000911565b92506200071582620008ef565b8060005b838110156200074c578151620007308782620006d7565b96506200073d8362000904565b92505060018101905062000719565b505050505050565b6000620007636020836200091c565b91506200077082620009dc565b602082019050919050565b60006200078a6021836200091c565b9150620007978262000a05565b604082019050919050565b6000620007b16027836200091c565b9150620007be8262000a54565b604082019050919050565b6000620007d86029836200091c565b9150620007e58262000aa3565b604082019050919050565b6000620007ff6022836200091c565b91506200080c8262000af2565b604082019050919050565b620008228162000961565b82525050565b60006040820190506200083f6000830184620006f1565b92915050565b60006020820190508181036000830152620008608162000754565b9050919050565b6000602082019050818103600083015262000882816200077b565b9050919050565b60006020820190508181036000830152620008a481620007a2565b9050919050565b60006020820190508181036000830152620008c681620007c9565b9050919050565b60006020820190508181036000830152620008e881620007f0565b9050919050565b6000819050919050565b600060029050919050565b6000602082019050919050565b600081905092915050565b600082825260208201905092915050565b60006200093a8262000941565b9050919050565b600073ffffffffffffffffffffffffffffffffffffffff82169050919050565b6000819050919050565b600063ffffffff82169050919050565b600062000988826200096b565b915063ffffffff821415620009a257620009a1620009ad565b5b600182019050919050565b7f4e487b7100000000000000000000000000000000000000000000000000000000600052601160045260246000fd5b7f5f6c6566742073686f756c6420626520696e7369646520746865206669656c64600082015250565b7f5f72696768742073686f756c6420626520696e7369646520746865206669656c60008201527f6400000000000000000000000000000000000000000000000000000000000000602082015250565b7f5f747265654c6576656c732073686f756c64206265206772656174657220746860008201527f616e207a65726f00000000000000000000000000000000000000000000000000602082015250565b7f6d696e696d756d206465706f7369742073686f756c642062652067726561746560008201527f72207468616e20302e0000000000000000000000000000000000000000000000602082015250565b7f5f747265654c6576656c732073686f756c64206265206c657373207468616e2060008201527f3332000000000000000000000000000000000000000000000000000000000000602082015250565b62000b4c816200092d565b811462000b5857600080fd5b50565b62000b668162000961565b811462000b7257600080fd5b50565b62000b80816200096b565b811462000b8c57600080fd5b50565b60805160e01c60a05160c05160e05160601c61340f62000bf96000396000818161061301528181610b67015261117601526000818161069f015261143e015260008181610854015261141301526000818161067b015281816119c70152611a8d015261340f6000f3fe6080604052600436106101665760003560e01c8063a6232a93116100d1578063e82955881161008a578063f178e47c11610064578063f178e47c1461051d578063f1ea66d41461055a578063f2fde38b14610585578063fc7e9c6f146105ae57610166565b8063e82955881461048a578063ec732959146104c7578063ed33639f146104f257610166565b8063a6232a93146103a3578063ba70f757146103e0578063cd87a3b41461040b578063d0f44abe14610436578063d724e5b114610452578063e2bbb1581461046e57610166565b806354b302c51161012357806354b302c5146102a35780635bb93995146102ce578063636bfbab1461030b578063715018a6146103365780638da5cb5b1461034d57806390eeb02b1461037857610166565b8063081dc6811461016b5780631f79a1e9146101a85780632b7ac3f3146101e5578063414a37ba1461021057806349ce89971461023b5780634ecf518b14610278575b600080fd5b34801561017757600080fd5b50610192600480360381019061018d919061213f565b6105d9565b60405161019f919061299e565b60405180910390f35b3480156101b457600080fd5b506101cf60048036038101906101ca91906120b1565b6105f1565b6040516101dc919061274d565b60405180910390f35b3480156101f157600080fd5b506101fa610611565b6040516102079190612783565b60405180910390f35b34801561021c57600080fd5b50610225610635565b604051610232919061299e565b60405180910390f35b34801561024757600080fd5b50610262600480360381019061025d91906120b1565b610659565b60405161026f919061274d565b60405180910390f35b34801561028457600080fd5b5061028d610679565b60405161029a91906129b9565b60405180910390f35b3480156102af57600080fd5b506102b861069d565b6040516102c5919061299e565b60405180910390f35b3480156102da57600080fd5b506102f560048036038101906102f09190612103565b6106c1565b604051610302919061299e565b60405180910390f35b34801561031757600080fd5b50610320610852565b60405161032d919061299e565b60405180910390f35b34801561034257600080fd5b5061034b610876565b005b34801561035957600080fd5b506103626108fe565b60405161036f9190612632565b60405180910390f35b34801561038457600080fd5b5061038d610928565b60405161039a91906129b9565b60405180910390f35b3480156103af57600080fd5b506103ca60048036038101906103c591906120b1565b61093e565b6040516103d7919061274d565b60405180910390f35b3480156103ec57600080fd5b506103f56109ed565b604051610402919061299e565b60405180910390f35b34801561041757600080fd5b50610420610a26565b60405161042d91906129b9565b60405180910390f35b610450600480360381019061044b9190611ff8565b610a2b565b005b61046c60048036038101906104679190611f53565b610df0565b005b61048860048036038101906104839190612103565b611362565b005b34801561049657600080fd5b506104b160048036038101906104ac91906120b1565b611532565b6040516104be919061299e565b60405180910390f35b3480156104d357600080fd5b506104dc611556565b6040516104e9919061299e565b60405180910390f35b3480156104fe57600080fd5b5061050761157a565b6040516105149190612768565b60405180910390f35b34801561052957600080fd5b50610544600480360381019061053f91906120b1565b61159e565b604051610551919061299e565b60405180910390f35b34801561056657600080fd5b5061056f6115c2565b60405161057c919061272b565b60405180910390f35b34801561059157600080fd5b506105ac60048036038101906105a79190611f01565b61161a565b005b3480156105ba57600080fd5b506105c3611712565b6040516105d091906129b9565b60405180910390f35b60046020528060005260406000206000915090505481565b60076020528060005260406000206000915054906101000a900460ff1681565b7f000000000000000000000000000000000000000000000000000000000000000081565b7f30644e72e131a029b85045b68181585d2833e84879b9709143e1f593f000000181565b60086020528060005260406000206000915054906101000a900460ff1681565b7f000000000000000000000000000000000000000000000000000000000000000081565b7f000000000000000000000000000000000000000000000000000000000000000081565b60007f30644e72e131a029b85045b68181585d2833e84879b9709143e1f593f00000018310610725576040517f08c379a000000000000000000000000000000000000000000000000000000000815260040161071c9061285e565b60405180910390fd5b7f30644e72e131a029b85045b68181585d2833e84879b9709143e1f593f00000018210610787576040517f08c379a000000000000000000000000000000000000000000000000000000000815260040161077e9061287e565b60405180910390fd5b6000604051806040016040528085815260200184815250905060008054906101000a900473ffffffffffffffffffffffffffffffffffffffff1673ffffffffffffffffffffffffffffffffffffffff166329a5f2f6826040518263ffffffff1660e01b81526004016107f991906126c9565b60206040518083038186803b15801561081157600080fd5b505afa158015610825573d6000803e3d6000fd5b505050506040513d601f19601f8201168201806040525081019061084991906120da565b91505092915050565b7f000000000000000000000000000000000000000000000000000000000000000081565b61087e611728565b73ffffffffffffffffffffffffffffffffffffffff1661089c6108fe565b73ffffffffffffffffffffffffffffffffffffffff16146108f2576040517f08c379a00000000000000000000000000000000000000000000000000000000081526004016108e99061289e565b60405180910390fd5b6108fc6000611730565b565b6000600960009054906101000a900473ffffffffffffffffffffffffffffffffffffffff16905090565b600360009054906101000a900463ffffffff1681565b60008082141561095157600090506109e8565b6000600360009054906101000a900463ffffffff1690505b600460008263ffffffff1663ffffffff1681526020019081526020016000205483141561099a5760019150506109e8565b60008163ffffffff1614156109ae57606490505b80806109b990612e65565b915050600360009054906101000a900463ffffffff1663ffffffff168163ffffffff1614156109695760009150505b919050565b600060046000600360009054906101000a900463ffffffff1663ffffffff1663ffffffff16815260200190815260200160002054905090565b606481565b60026005541415610a71576040517f08c379a0000000000000000000000000000000000000000000000000000000008152600401610a689061295e565b60405180910390fd5b600260058190555081831115610abc576040517f08c379a0000000000000000000000000000000000000000000000000000000008152600401610ab39061281e565b60405180910390fd5b6007600087815260200190815260200160002060009054906101000a900460ff1615610b1d576040517f08c379a0000000000000000000000000000000000000000000000000000000008152600401610b149061279e565b60405180910390fd5b610b268761093e565b610b65576040517f08c379a0000000000000000000000000000000000000000000000000000000008152600401610b5c906127fe565b60405180910390fd5b7f000000000000000000000000000000000000000000000000000000000000000073ffffffffffffffffffffffffffffffffffffffff1663f398789b89600001518a602001518b604001516040518060c001604052808d81526020018c81526020018b73ffffffffffffffffffffffffffffffffffffffff1681526020018a73ffffffffffffffffffffffffffffffffffffffff168152602001898152602001888152506040518563ffffffff1660e01b8152600401610c2894939291906126e4565b60206040518083038186803b158015610c4057600080fd5b505afa158015610c54573d6000803e3d6000fd5b505050506040513d601f19601f82011682018060405250810190610c789190611f2a565b610cb7576040517f08c379a0000000000000000000000000000000000000000000000000000000008152600401610cae9061291e565b60405180910390fd5b60016007600088815260200190815260200160002060006101000a81548160ff021916908315150217905550610cef858585856117f6565b6008600082815260200190815260200160002060009054906101000a900460ff1615610d50576040517f08c379a0000000000000000000000000000000000000000000000000000000008152600401610d47906128be565b60405180910390fd5b6000610d5b826119ad565b905060016008600084815260200190815260200160002060006101000a81548160ff0219169083151502179055508473ffffffffffffffffffffffffffffffffffffffff167fe03e84a84802064814c24e7671730ad918cff4571f9066644bdc46280d2a41b287898786604051610dd59493929190612684565b60405180910390a25060016005819055505050505050505050565b60026005541415610e36576040517f08c379a0000000000000000000000000000000000000000000000000000000008152600401610e2d9061295e565b60405180910390fd5b600260058190555080821115610e81576040517f08c379a0000000000000000000000000000000000000000000000000000000008152600401610e789061281e565b60405180910390fd5b6007600086815260200190815260200160002060009054906101000a900460ff1615610ee2576040517f08c379a0000000000000000000000000000000000000000000000000000000008152600401610ed99061279e565b60405180910390fd5b610eeb8661093e565b610f2a576040517f08c379a0000000000000000000000000000000000000000000000000000000008152600401610f21906127fe565b60405180910390fd5b6000600667ffffffffffffffff811115610f6d577f4e487b7100000000000000000000000000000000000000000000000000000000600052604160045260246000fd5b604051908082528060200260200182016040528015610f9b5781602001602082028036833780820191505090505b5090508681600081518110610fd9577f4e487b7100000000000000000000000000000000000000000000000000000000600052603260045260246000fd5b6020026020010181815250508581600181518110611020577f4e487b7100000000000000000000000000000000000000000000000000000000600052603260045260246000fd5b6020026020010181815250508473ffffffffffffffffffffffffffffffffffffffff168160028151811061107d577f4e487b7100000000000000000000000000000000000000000000000000000000600052603260045260246000fd5b6020026020010181815250508373ffffffffffffffffffffffffffffffffffffffff16816003815181106110da577f4e487b7100000000000000000000000000000000000000000000000000000000600052603260045260246000fd5b6020026020010181815250508281600481518110611121577f4e487b7100000000000000000000000000000000000000000000000000000000600052603260045260246000fd5b6020026020010181815250508181600581518110611168577f4e487b7100000000000000000000000000000000000000000000000000000000600052603260045260246000fd5b6020026020010181815250507f000000000000000000000000000000000000000000000000000000000000000073ffffffffffffffffffffffffffffffffffffffff1663f398789b89600001518a602001518b604001516040518060c001604052808d81526020018c81526020018b73ffffffffffffffffffffffffffffffffffffffff1681526020018a73ffffffffffffffffffffffffffffffffffffffff168152602001898152602001888152506040518563ffffffff1660e01b815260040161123794939291906126e4565b60206040518083038186803b15801561124f57600080fd5b505afa158015611263573d6000803e3d6000fd5b505050506040513d601f19601f820116820180604052508101906112879190611f2a565b6112c6576040517f08c379a00000000000000000000000000000000000000000000000000000000081526004016112bd9061291e565b60405180910390fd5b60016007600088815260200190815260200160002060006101000a81548160ff0219169083151502179055506112fe858585856117f6565b8373ffffffffffffffffffffffffffffffffffffffff167f457f950b75085c30ff780acd57bde642ff1316cc4aad9f286af2c1ffc4163a788688866040516113489392919061264d565b60405180910390a250600160058190555050505050505050565b600260055414156113a8576040517f08c379a000000000000000000000000000000000000000000000000000000000815260040161139f9061295e565b60405180910390fd5b60026005819055506008600083815260200190815260200160002060009054906101000a900460ff1615611411576040517f08c379a0000000000000000000000000000000000000000000000000000000008152600401611408906128be565b60405180910390fd5b7f0000000000000000000000000000000000000000000000000000000000000000811015801561146157507f00000000000000000000000000000000000000000000000000000000000000008111155b6114a0576040517f08c379a00000000000000000000000000000000000000000000000000000000081526004016114979061283e565b60405180910390fd5b60006114ab836119ad565b90506114b683611c9d565b60016008600085815260200190815260200160002060006101000a81548160ff0219169083151502179055506114eb82611cc9565b827f2813ca2762c14ad53880ef467c7448a9015904c20e064e6216ffb3f63390ec5d824260405161151d9291906129d4565b60405180910390a25060016005819055505050565b6002818154811061154257600080fd5b906000526020600020016000915090505481565b7f2fe54c60d3acabf3343a35b6eba15db4821b340f76e741e2249685ed4899af6c81565b60008054906101000a900473ffffffffffffffffffffffffffffffffffffffff1681565b600181815481106115ae57600080fd5b906000526020600020016000915090505481565b6060600680548060200260200160405190810160405280929190818152602001828054801561161057602002820191906000526020600020905b8154815260200190600101908083116115fc575b5050505050905090565b611622611728565b73ffffffffffffffffffffffffffffffffffffffff166116406108fe565b73ffffffffffffffffffffffffffffffffffffffff1614611696576040517f08c379a000000000000000000000000000000000000000000000000000000000815260040161168d9061289e565b60405180910390fd5b600073ffffffffffffffffffffffffffffffffffffffff168173ffffffffffffffffffffffffffffffffffffffff161415611706576040517f08c379a00000000000000000000000000000000000000000000000000000000081526004016116fd906127de565b60405180910390fd5b61170f81611730565b50565b600360049054906101000a900463ffffffff1681565b600033905090565b6000600960009054906101000a900473ffffffffffffffffffffffffffffffffffffffff16905081600960006101000a81548173ffffffffffffffffffffffffffffffffffffffff021916908373ffffffffffffffffffffffffffffffffffffffff1602179055508173ffffffffffffffffffffffffffffffffffffffff168173ffffffffffffffffffffffffffffffffffffffff167f8be0079c531659141344cd1fd0a4f28419497f9722a3daafe3b4186f6b6457e060405160405180910390a35050565b60003414611839576040517f08c379a00000000000000000000000000000000000000000000000000000000081526004016118309061297e565b60405180910390fd5b60008473ffffffffffffffffffffffffffffffffffffffff16838361185e9190612d15565b60405161186a9061261d565b60006040518083038185875af1925050503d80600081146118a7576040519150601f19603f3d011682016040523d82523d6000602084013e6118ac565b606091505b50509050806118f0576040517f08c379a00000000000000000000000000000000000000000000000000000000081526004016118e7906128de565b60405180910390fd5b60008311156119a6578373ffffffffffffffffffffffffffffffffffffffff168360405161191d9061261d565b60006040518083038185875af1925050503d806000811461195a576040519150601f19603f3d011682016040523d82523d6000602084013e61195f565b606091505b505080915050806119a5576040517f08c379a000000000000000000000000000000000000000000000000000000000815260040161199c906128fe565b60405180910390fd5b5b5050505050565b600080600360049054906101000a900463ffffffff1690507f000000000000000000000000000000000000000000000000000000000000000060026119f29190612c13565b63ffffffff168163ffffffff161415611a40576040517f08c379a0000000000000000000000000000000000000000000000000000000008152600401611a37906127be565b60405180910390fd5b6001600360048282829054906101000a900463ffffffff16611a629190612b55565b92506101000a81548163ffffffff021916908363ffffffff160217905550600083905060008060005b7f000000000000000000000000000000000000000000000000000000000000000063ffffffff168163ffffffff161015611bfd576000600286611ace9190612eed565b63ffffffff161415611b7e5783925060028163ffffffff1681548110611b1d577f4e487b7100000000000000000000000000000000000000000000000000000000600052603260045260246000fd5b906000526020600020015491508360018263ffffffff1681548110611b6b577f4e487b7100000000000000000000000000000000000000000000000000000000600052603260045260246000fd5b9060005260206000200181905550611bcf565b60018163ffffffff1681548110611bbe577f4e487b7100000000000000000000000000000000000000000000000000000000600052603260045260246000fd5b906000526020600020015492508391505b611bd983836106c1565b9350600285611be89190612b8f565b94508080611bf590612ec0565b915050611a8b565b50600060646001600360009054906101000a900463ffffffff16611c219190612b55565b611c2b9190612eed565b905080600360006101000a81548163ffffffff021916908363ffffffff16021790555083600460008363ffffffff1663ffffffff168152602001908152602001600020819055506001600360049054906101000a900463ffffffff16611c919190612d49565b95505050505050919050565b600681908060018154018082558091505060019003906000526020600020016000909190919091505550565b803414611d0b576040517f08c379a0000000000000000000000000000000000000000000000000000000008152600401611d029061293e565b60405180910390fd5b50565b6000611d21611d1c84612a22565b6129fd565b90508082856040860282011115611d3757600080fd5b60005b85811015611d675781611d4d8882611e25565b845260208401935060408301925050600181019050611d3a565b5050509392505050565b6000611d84611d7f84612a48565b6129fd565b90508082856020860282011115611d9a57600080fd5b60005b85811015611dca5781611db08882611ec2565b845260208401935060208301925050600181019050611d9d565b5050509392505050565b600081359050611de381613366565b92915050565b600081359050611df88161337d565b92915050565b600082601f830112611e0f57600080fd5b6002611e1c848285611d0e565b91505092915050565b600082601f830112611e3657600080fd5b6002611e43848285611d71565b91505092915050565b600081519050611e5b81613394565b92915050565b60006101008284031215611e7457600080fd5b611e7e60606129fd565b90506000611e8e84828501611e25565b6000830152506040611ea284828501611dfe565b60208301525060c0611eb684828501611e25565b60408301525092915050565b600081359050611ed1816133ab565b92915050565b600081519050611ee6816133ab565b92915050565b600081359050611efb816133c2565b92915050565b600060208284031215611f1357600080fd5b6000611f2184828501611dd4565b91505092915050565b600060208284031215611f3c57600080fd5b6000611f4a84828501611e4c565b91505092915050565b60008060008060008060006101c0888a031215611f6f57600080fd5b6000611f7d8a828b01611e61565b975050610100611f8f8a828b01611ec2565b965050610120611fa18a828b01611ec2565b955050610140611fb38a828b01611de9565b945050610160611fc58a828b01611de9565b935050610180611fd78a828b01611ec2565b9250506101a0611fe98a828b01611ec2565b91505092959891949750929550565b6000806000806000806000806101e0898b03121561201557600080fd5b60006120238b828c01611e61565b9850506101006120358b828c01611ec2565b9750506101206120478b828c01611ec2565b9650506101406120598b828c01611de9565b95505061016061206b8b828c01611de9565b94505061018061207d8b828c01611ec2565b9350506101a061208f8b828c01611ec2565b9250506101c06120a18b828c01611ec2565b9150509295985092959890939650565b6000602082840312156120c357600080fd5b60006120d184828501611ec2565b91505092915050565b6000602082840312156120ec57600080fd5b60006120fa84828501611ed7565b91505092915050565b6000806040838503121561211657600080fd5b600061212485828601611ec2565b925050602061213585828601611ec2565b9150509250929050565b60006020828403121561215157600080fd5b600061215f84828501611eec565b91505092915050565b6000612174838361220d565b60408301905092915050565b600061218c83836125f0565b60208301905092915050565b6121a181612de7565b82525050565b6121b081612d7d565b82525050565b6121bf81612a9c565b6121c98184612afc565b92506121d482612a6e565b8060005b838110156122055781516121ec8782612168565b96506121f783612ac8565b9250506001810190506121d8565b505050505050565b61221681612aa7565b6122208184612b07565b925061222b82612a78565b8060005b8381101561225c5781516122438782612180565b965061224e83612ad5565b92505060018101905061222f565b505050505050565b61226d81612aa7565b6122778184612b12565b925061228282612a78565b8060005b838110156122b357815161229a8782612180565b96506122a583612ad5565b925050600181019050612286565b505050505050565b6122c481612ab2565b6122ce8184612b1d565b92506122d982612a82565b8060005b8381101561230a5781516122f18782612180565b96506122fc83612ae2565b9250506001810190506122dd565b505050505050565b600061231d82612abd565b6123278185612b28565b935061233283612a8c565b8060005b8381101561236357815161234a8882612180565b975061235583612aef565b925050600181019050612336565b5085935050505092915050565b61237981612da1565b82525050565b61238881612df9565b82525050565b61239781612e1d565b82525050565b60006123aa602083612b44565b91506123b582612fc9565b602082019050919050565b60006123cd602f83612b44565b91506123d882612ff2565b604082019050919050565b60006123f0602683612b44565b91506123fb82613041565b604082019050919050565b6000612413601c83612b44565b915061241e82613090565b602082019050919050565b6000612436601a83612b44565b9150612441826130b9565b602082019050919050565b6000612459601f83612b44565b9150612464826130e2565b602082019050919050565b600061247c602083612b44565b91506124878261310b565b602082019050919050565b600061249f602183612b44565b91506124aa82613134565b604082019050919050565b60006124c2602083612b44565b91506124cd82613183565b602082019050919050565b60006124e5602a83612b44565b91506124f0826131ac565b604082019050919050565b6000612508602583612b44565b9150612513826131fb565b604082019050919050565b600061252b602883612b44565b91506125368261324a565b604082019050919050565b600061254e600083612b39565b915061255982613299565b600082019050919050565b6000612571600d83612b44565b915061257c8261329c565b602082019050919050565b6000612594601e83612b44565b915061259f826132c5565b602082019050919050565b60006125b7601f83612b44565b91506125c2826132ee565b602082019050919050565b60006125da603583612b44565b91506125e582613317565b604082019050919050565b6125f981612dcd565b82525050565b61260881612dcd565b82525050565b61261781612dd7565b82525050565b600061262882612541565b9150819050919050565b600060208201905061264760008301846121a7565b92915050565b60006060820190506126626000830186612198565b61266f60208301856125ff565b61267c60408301846125ff565b949350505050565b60006080820190506126996000830187612198565b6126a660208301866125ff565b6126b360408301856125ff565b6126c060608301846125ff565b95945050505050565b60006040820190506126de6000830184612264565b92915050565b60006101c0820190506126fa6000830187612264565b61270760408301866121b6565b61271460c0830185612264565b6127226101008301846122bb565b95945050505050565b600060208201905081810360008301526127458184612312565b905092915050565b60006020820190506127626000830184612370565b92915050565b600060208201905061277d600083018461237f565b92915050565b6000602082019050612798600083018461238e565b92915050565b600060208201905081810360008301526127b78161239d565b9050919050565b600060208201905081810360008301526127d7816123c0565b9050919050565b600060208201905081810360008301526127f7816123e3565b9050919050565b6000602082019050818103600083015261281781612406565b9050919050565b6000602082019050818103600083015261283781612429565b9050919050565b600060208201905081810360008301526128578161244c565b9050919050565b600060208201905081810360008301526128778161246f565b9050919050565b6000602082019050818103600083015261289781612492565b9050919050565b600060208201905081810360008301526128b7816124b5565b9050919050565b600060208201905081810360008301526128d7816124d8565b9050919050565b600060208201905081810360008301526128f7816124fb565b9050919050565b600060208201905081810360008301526129178161251e565b9050919050565b6000602082019050818103600083015261293781612564565b9050919050565b6000602082019050818103600083015261295781612587565b9050919050565b60006020820190508181036000830152612977816125aa565b9050919050565b60006020820190508181036000830152612997816125cd565b9050919050565b60006020820190506129b360008301846125ff565b92915050565b60006020820190506129ce600083018461260e565b92915050565b60006040820190506129e9600083018561260e565b6129f660208301846125ff565b9392505050565b6000612a07612a18565b9050612a138282612e8f565b919050565b6000604051905090565b600067ffffffffffffffff821115612a3d57612a3c612f7c565b5b602082029050919050565b600067ffffffffffffffff821115612a6357612a62612f7c565b5b602082029050919050565b6000819050919050565b6000819050919050565b6000819050919050565b6000819050602082019050919050565b600060029050919050565b600060029050919050565b600060069050919050565b600081519050919050565b6000602082019050919050565b6000602082019050919050565b6000602082019050919050565b6000602082019050919050565b600081905092915050565b600081905092915050565b600081905092915050565b600081905092915050565b600082825260208201905092915050565b600081905092915050565b600082825260208201905092915050565b6000612b6082612dd7565b9150612b6b83612dd7565b92508263ffffffff03821115612b8457612b83612f1e565b5b828201905092915050565b6000612b9a82612dd7565b9150612ba583612dd7565b925082612bb557612bb4612f4d565b5b828204905092915050565b6000808291508390505b6001851115612c0a57808604811115612be657612be5612f1e565b5b6001851615612bf55780820291505b8081029050612c0385612fbc565b9450612bca565b94509492505050565b6000612c1e82612dd7565b9150612c2983612dd7565b9250612c3a63ffffffff8484612c42565b905092915050565b600082612c525760019050612d0e565b81612c605760009050612d0e565b8160018114612c765760028114612c8057612caf565b6001915050612d0e565b60ff841115612c9257612c91612f1e565b5b8360020a915084821115612ca957612ca8612f1e565b5b50612d0e565b5060208310610133831016604e8410600b8410161715612ce45782820a905083811115612cdf57612cde612f1e565b5b612d0e565b612cf18484846001612bc0565b92509050818404811115612d0857612d07612f1e565b5b81810290505b9392505050565b6000612d2082612dcd565b9150612d2b83612dcd565b925082821015612d3e57612d3d612f1e565b5b828203905092915050565b6000612d5482612dd7565b9150612d5f83612dd7565b925082821015612d7257612d71612f1e565b5b828203905092915050565b6000612d8882612dad565b9050919050565b6000612d9a82612dad565b9050919050565b60008115159050919050565b600073ffffffffffffffffffffffffffffffffffffffff82169050919050565b6000819050919050565b600063ffffffff82169050919050565b6000612df282612e41565b9050919050565b6000612e0482612e0b565b9050919050565b6000612e1682612dad565b9050919050565b6000612e2882612e2f565b9050919050565b6000612e3a82612dad565b9050919050565b6000612e4c82612e53565b9050919050565b6000612e5e82612dad565b9050919050565b6000612e7082612dd7565b91506000821415612e8457612e83612f1e565b5b600182039050919050565b612e9882612fab565b810181811067ffffffffffffffff82111715612eb757612eb6612f7c565b5b80604052505050565b6000612ecb82612dd7565b915063ffffffff821415612ee257612ee1612f1e565b5b600182019050919050565b6000612ef882612dd7565b9150612f0383612dd7565b925082612f1357612f12612f4d565b5b828206905092915050565b7f4e487b7100000000000000000000000000000000000000000000000000000000600052601160045260246000fd5b7f4e487b7100000000000000000000000000000000000000000000000000000000600052601260045260246000fd5b7f4e487b7100000000000000000000000000000000000000000000000000000000600052604160045260246000fd5b6000601f19601f8301169050919050565b60008160011c9050919050565b7f546865206e6f746520686173206265656e20616c7265616479207370656e742e600082015250565b7f4d65726b6c6520747265652069732066756c6c2e204e6f206d6f7265206c656160008201527f66732063616e2062652061646465640000000000000000000000000000000000602082015250565b7f4f776e61626c653a206e6577206f776e657220697320746865207a65726f206160008201527f6464726573730000000000000000000000000000000000000000000000000000602082015250565b7f43616e6e6f742066696e6420796f7572206d65726b6c6520726f6f7400000000600082015250565b7f4665652065786365656473207472616e736665722076616c7565000000000000600082015250565b7f596f752063616e6e6f74206465706f736974207468697320616d6f756e742e00600082015250565b7f5f6c6566742073686f756c6420626520696e7369646520746865206669656c64600082015250565b7f5f72696768742073686f756c6420626520696e7369646520746865206669656c60008201527f6400000000000000000000000000000000000000000000000000000000000000602082015250565b7f4f776e61626c653a2063616c6c6572206973206e6f7420746865206f776e6572600082015250565b7f54686520636f6d6d69746d656e742068617320616c7265616479206265656e2060008201527f7375626d69747465642e00000000000000000000000000000000000000000000602082015250565b7f7061796d656e7420746f205f726563697069656e7420646964206e6f7420676f60008201527f2074687275000000000000000000000000000000000000000000000000000000602082015250565b7f7061796d656e7420746f20746865205f72656c6179657220646964206e6f742060008201527f676f20746872752e000000000000000000000000000000000000000000000000602082015250565b50565b7f496e76616c69642070726f6f6600000000000000000000000000000000000000600082015250565b7f506c656173652073656e642074686520636f727265637420616d6f756e740000600082015250565b7f5265656e7472616e637947756172643a207265656e7472616e742063616c6c00600082015250565b7f4d6573736167652076616c756520697320737570706f73656420746f2062652060008201527f7a65726f20666f722045544820696e7374616e63650000000000000000000000602082015250565b61336f81612d7d565b811461337a57600080fd5b50565b61338681612d8f565b811461339157600080fd5b50565b61339d81612da1565b81146133a857600080fd5b50565b6133b481612dcd565b81146133bf57600080fd5b50565b6133cb81612dd7565b81146133d657600080fd5b5056fea2646970667358221220e830b15bff6374fd11524fcf2b80e31a05326dc13921d914406618465fd690a864736f6c63430008040033",
  "linkReferences": {},
  "deployedLinkReferences": {}
}